:020000040800F2
:10000000580D0020D9010008B93B000869340008E8
:10001000B53B000855110008254B00080000000002
:10002000000000000000000000000000193C000873
:100030009511000800000000E93B00084D3C000855
:10004000F3010008F3010008F3010008F3010008C0
:10005000F3010008F3010008F3010008F3010008B0
:10006000F3010008F3010008F3010008F3010008A0
:10007000F3010008F3010008F3010008F301000890
:10008000F301000859110008F30100080000000006
:10009000000000000000000000000000F301000864
:1000A000F3010008B53D0008CD3C0008F30100084D
:1000B000F3010008F3010008D13E0008F301000835
:1000C000F3010008F3010008F3010008F301000840
:1000D000F3010008F3010008F3010008F301000830
:1000E000F3010008F3010008F3010008000000001C
:1000F0000000000000000000000000000000000000
:1001000000000000000000000000000000000000EF
:100110000000000000000000F53E0008D13F00088C
:1001200000F002F800F048F80AA090E8000C8244C1
:100130008344AAF10107DA4501D100F03DF8AFF29E
:10014000090EBAE80F0013F0010F18BFFB1A43F0B5
:1001500001031847B4560000D4560000103A24BFDB
:1001600078C878C1FAD8520724BF30C830C144BF1C
:1001700004680C607047000000230024002500265E
:10018000103A28BF78C1FBD8520728BF30C148BFFA
:100190000B607047642900F07B80002070471FB51A
:1001A00000F032FB04000020002105F08BF9401C18
:1001B00060601FBD10B510BD00F001FB1146FFF7D8
:1001C000EEFF04F063FD00F031FB03B4FFF7F2FF34
:1001D00003BC00F075FB0000094880470948004750
:1001E000FEE7FEE7FEE7FEE7FEE7FEE7FEE7FEE7E7
:1001F000FEE7FEE704480549054A064B7047000044
:10020000C53C00082101000858070020580D0020B7
:1002100058090020580900200FB41CB5074B06AA46
:100220007B4469460090059800F0FBF90020694680
:1002300000F00AFA1CBC5DF814FB00002504000065
:1002400070B5044685690068C10601D5302600E016
:100250002026C00707D070BDD4E901213046904761
:10026000206A401C20626D1EF6D570BD70B5044634
:1002700085690078C00707D170BDD4E9012120202D
:100280009047206A401C20626D1EF6D570BD0000AC
:100290002DE9F0410646002410687529314616A55F
:1002A00010D0AFF30080002802DA404213A507E027
:1002B00031688A0701D512A502E0490704D511A5C6
:1002C000012401E0AFF3008000210A2206F1240797
:1002D00009E0B0FBF2FCB0FBF2F302FB1C00303093
:1002E00078541846491C0028F3D123462A46304644
:1002F000BDE8F04100F036B9000000002D0000001C
:100300002B000000200000002DE9F05F8946044624
:100310004FF0000ADFF824B1FB44C0F820A02046CB
:10032000E168884700287DD0252806D0D4E901213E
:100330009047206A401C2062F1E700255F46204676
:10034000E16888472028064607DB312E05D2B81918
:1003500010F8200C08B10543F1E7A80701D525F0F6
:100360000405C4F81CA00027C4F818A02A2E09D040
:10037000304605F09FF838B304EB8708303EC8F8E4
:10038000186019E059F8041B204604EB87029161BC
:10039000E1688847012F064618D1E069002820DA75
:1003A00025F020051DE0D8F8180000EB800006EBD2
:1003B00040003038C8F818002046E16888470646F3
:1003C00005F078F80028EED1012F0AD02E2E08D1A2
:1003D0002046E16888477F1C0646022F45F020052D
:1003E000C4DBA069002803DA404245F00105A061A2
:1003F000E80701D025F01005A6B1A6F141001928A3
:1004000002D8203645F400654A463146204625602C
:100410004D46FFF7BFFE60B1012807D0ED1D25F066
:10042000070000E007E000F1080978E705F104099A
:1004300075E730467AE7206ABDE8F09F5454000023
:1004400070B5064600F08AF80468054630460A2270
:10045000002100F0FEF82C6070BD40EA0103024666
:1004600030B59B0710D14FF0013400E008C208C935
:100470001D1B9D4315EAC41FF8D013F0FF0102F8BD
:10048000011B0DD01B0AF8E711F8013B002B02F805
:10049000013B05D011F8013B002B02F8013BF3D1E1
:1004A00030BD02F0FF0343EA032242EA024200F0B9
:1004B0000AB94FF0000200B513469446964620391B
:1004C00022BFA0E80C50A0E80C50B1F12001BFF40D
:1004D000F7AF090728BFA0E80C5048BF0CC05DF873
:1004E00004EB890028BF40F8042B08BF704748BFC1
:1004F00020F8022B11F0804F18BF00F8012B704735
:1005000010B5044610F0030F08BF11F0030F40F0C0
:1005100015804FF0013E121FC0F20E8051F8043BCF
:10052000A3EB0E0C2CEA030C1CEACE1C08BF40F80F
:10053000043BF0D0A1F1040102F10402521E08DBD9
:1005400011F8013B00F8013B002BF7D1114600F0F8
:10055000B8F8204610BD7047704770470048704794
:10056000C80100202DE9F0470D4699469246044601
:1005700000F124080168880604D5E06921F0100123
:10058000216000E00120A84201DD471B00E00027B8
:10059000A1697A1902EB0900081AA0612078C00647
:1005A00002D42046FFF74CFE002608E0D4E90121E2
:1005B0001AF806009047206A401C761C20624E45BF
:1005C000F4DB2078C0060AD52046FFF739FE06E0A6
:1005D000D4E9012130209047206A401C2062381E57
:1005E000A7F10107F4DC07E0D4E9012118F80500C0
:1005F0009047206A401C2062281EA5F10105F3DC0B
:100600002046FFF733FE2078000602D50220BDE821
:10061000F0870120FBE7000001694A1C02610878AD
:10062000704700B58FB0CDE9013100210591054932
:100630007944CDE9031011466846FFF765FE0FB017
:1006400000BD0000E5FFFFFF0A6802F8010B0A6029
:1006500070472DE9F04791460F4680460446002634
:1006600014F8015B2DB100F053F80068405DC0073D
:10067000F6D12B2D02D02D2D18D0641E4A463946B6
:10068000204600F04DF827B13968A14201D1C7F8E2
:1006900000804FF0020471050BD54042002803DDB5
:1006A000FFF75CFF0460A007BDE8F08746F48066B2
:1006B000E4E70028F8DAFFF751FF04606FF000402C
:1006C000F2E74FF000020429C0F0128010F0030C92
:1006D0003FF4F1AECCF1040CBCF1020F18BF00F8EE
:1006E000012BA8BF20F8022BA1EB0C01FFF7E3BE02
:1006F0005FEAC17C24BF00F8012B00F8012B48BF42
:1007000000F8012B7047000000487047C801002026
:1007100010B500F079F8001D10BD00BFA94D000014
:100720002DE9F05F824615468B4600270AF1010449
:10073000B9460078302801D09DB113E014F8010BC0
:100740000127782803D0582801D045B10AE00DB11F
:10075000102D07D1002714F8010B102502E0082501
:1007600000E00A250026B0460EE005FB080005FB68
:1007700006F101271FFA80F801EB1046B6F5803F1D
:1007800000D3B94614F8010B294600F041F80028BF
:10079000EBDABBF1000F05D00FB1641E00E0544648
:1007A000CBF80040B9F1000F06D0FFF7D7FE0221C9
:1007B0000160C81EBDE8F09F48EA0640FAE77546AA
:1007C000FFF7A2FFAE4605006946534620F007003A
:1007D000854618B020B5FFF70DFDBDE820404FF06D
:1007E00000064FF000074FF000084FF0000BAC463A
:1007F000ACE8C009ACE8C009ACE8C009ACE8C00985
:1008000021F007018D46704700487047E80100203D
:100810003A2800D2303820F02002412A01D3A2F138
:100820003700884201D34FF0FF30704710B50446BF
:10083000AFF300802046BDE81040FFF7C6BC0000C3
:100840004FF0013C50F8042B51F8043B9A4221D15F
:10085000A2EB0C03934313EACC1317D150F8042BEB
:1008600051F8043B9A4215D1A2EB0C03934313EACF
:10087000CC130BD150F8042B51F8043B9A4209D108
:10088000A2EB0C03934313EACC13DBD04FF0000030
:10089000704700BFD01A01BAB1FA81F101F0180116
:1008A00022FA01F0CB40DBB2C0B2C01AC1F1200184
:1008B0002CFA01F3D11A914311EAC311E6D1704722
:1008C00001491820ABBEFEE7260002007047000079
:1008D000B0B5044600688168C90709D0816821F075
:1008E0000101816001F06AF921688968C90701D1B5
:1008F0000020B0BD054603E020688068C007F7D03F
:1009000001F05CF9401B0328F6D320688068C0071B
:10091000F2D0A06A40F01000A062E06A40F001004E
:10092000E0620120B0BD0000B0B582B004460020F6
:10093000019021688A68D2073DD1886840F00100A3
:10094000886040F20400C2F2000000684DF6836146
:10095000C4F21B31A0FB0101880C00BF019001987B
:1009600010B101980138F9E701F028F92168896888
:10097000C9071CD1054603E020688068C00719D16B
:1009800001F01CF9401B0328F6D320688068C007DB
:10099000F2D1A06A40F01000A062E06A40F00100CD
:1009A000E062002084F82400012002B0B0BD0020E5
:1009B00002B0B0BD002002B0B0BD000080B584B070
:1009C0000190012002900320039040F2E830C2F22F
:1009D000000001A900F0E6FB002818BF00F0DCFBD6
:1009E00004B080BD70B582B014460022ADF8062078
:1009F000BDF806201F2A11D80D460646BDF8060090
:100A000031462A46234600F06BF8BDF80600013057
:100A1000ADF80600BDF806002028EFD302B070BD87
:100A20002DE9F04101F09CFA41F20401C4F2020107
:100A30000968022211F4605F08BF0122504340F2AE
:100A40007C52C2F2000248F659311468000AC0F222
:100A50004F110022A0FB0101A2624FF0FF320809F2
:100A600002EB111189B24FF00108E162C4F8148061
:100A700004F06DFD45F2EC17C1F6B8674EF685330C
:100A8000C3F6E1733A4605460E4604F073FD04F0E2
:100A90002FFD40F2EC210138C2F200014EF6853301
:100AA0000870C3F6D173284631463A4604F062FD19
:100AB00004F01EFD40F2ED210138C2F20001087081
:100AC00040F22820C2F2000080F800802046042175
:100AD000012203F0E5FD012000F058FFBDE8F081A0
:100AE000F0B581B040F2000CC2F2000C9CF800504E
:100AF0004FF480740135B4FBF5F59CF80060B1FB50
:100B0000F5F7711C9CF80060B4FBF1F10136B2FB03
:100B1000F1F1B4FBF6F605460846B021B3FBF6F456
:100B200004F012FA06462046F02104F00DFA05F012
:100B30001F0140F2F42201EB4101C2F200025318FE
:100B400056545F70987001B0F0BD00002DE9F04779
:100B500082B040F22821C2F20001002040F22A288F
:100B60000870C2F20008B8F80010002940F0F280C6
:100B700040F21841C2F2000191F82110012940F021
:100B8000E98000208DF807009DF8070007286DD840
:100B900040F2F42040F2ED2140F2EC2540F22C230B
:100BA000C2F20000C2F20001C2F20005C2F200036C
:100BB00007789DF807602A46B7403F0658BF0A46A7
:100BC00012789DF8077043F8272042789DF8077047
:100BD000BA4012062A4658BF0A4612789DF8077096
:100BE00003EB87073A6282789DF80770BA401206D5
:100BF0002A4658BF0A4612789DF8077003EB87070C
:100C00003A64C2789DF80770BA4012062A4658BF67
:100C10000A4612789DF8077003EB87073A66027957
:100C20009DF80770BA4012062A4658BF0A46127845
:100C30009DF8077003EB8707C7F8802042799DF87D
:100C40000770BA4012062A4658BF0A4612789DF825
:100C5000077003EB8707C7F8A0209DF80720013233
:100C60008DF807209DF80720082AA1D340F27C5672
:100C700040F65D5A40F65D7744F2C56540F22C249B
:100C8000C2F200064FF00209C0F6000AC0F60007E3
:100C9000C0F60005C2F2000496F83F000228FBD01F
:100CA00096F83F000128F7D186F83F90B06A316886
:100CB000C0F828A0B06A01F1380221463023C0E90B
:100CC0000B7500F02BFE0028E6D13068C16841F4B6
:100CD0008062A0F18041A1F596314FEAB121072948
:100CE000C26009D8012202FA01F111F0E10F1EBF22
:100CF000416C41F40041416440F2FF71C4F20001D3
:100D0000884212DD40F60001C4F20001884215D08D
:100D100044F20001C4F2010188420FD042F60041C2
:100D2000C4F20101884209D00DE0B0F1804F05D036
:100D300040F20041C4F20001884204D1816801F010
:100D40000701062903D0016841F00101016002207A
:100D5000A8F8000002B0BDE8F08700002DE9F041DE
:100D600082B040F21841C2F20001884240F0F280A5
:100D7000406A40F27C58C2F20008404540F0EA80E8
:100D800040F22A25C2F200052888002800F0E280FF
:100D9000D8F82400884215D0D8F8280088421AD004
:100DA000D8F82C0088421FD0D8F83000884223D1D0
:100DB00088690821002888F81C1004BF012088F8E1
:100DC000410019E089690120002988F81C0008BF4A
:100DD00088F83E0010E08869022188F81C1058B994
:100DE000012088F83F0007E08869042188F81C107A
:100DF00010B9012088F8400028881F2858D8002002
:100E00008DF807009DF8070007285CD840F2F42011
:100E100040F2ED2140F2EC2740F22C23C2F2000018
:100E2000C2F20001C2F20007C2F200032C883A4667
:100E300004EB4404045D9DF8076004FA06F63606E8
:100E400058BF0A4612789DF8076003EB86063266A3
:100E50002A8802EB4202024452789DF80760B240B1
:100E600012063A4658BF0A4612789DF8076003EB0F
:100E70008606C6F880202A8802EB42020244927855
:100E80009DF80760B24012063A4658BF0A461278EB
:100E90009DF8076003EB8606C6F8A0209DF80720A2
:100EA00001328DF807209DF80720082ABED30AE0FA
:100EB000288821280BD840F22C20C2F20000603094
:100EC0006021FFF7F6FA2888013028803FE00020F3
:100ED0002880D8F80010D8F82800CA6822F4806268
:100EE000CA6000F0CFFBD8F80000A0F18041A1F566
:100EF00096314FEAB121072913D8012202FA01F1F4
:100F000011F0E10F0DD0016A41F21112114208D126
:100F1000016A40F24442114203D1416C21F4004184
:100F20004164016A41F21112114208D1016A40F292
:100F30004442114203D1016821F00101016040F2F5
:100F400028210120C2F2000188F83F00087000202B
:100F500088F81C0002B0BDE8F0810000F0B581B057
:100F600040F21841C2F20001884277D1406A40F253
:100F70007C51C2F20001884270D140F22A27C2F2AD
:100F800000073888002869D038881F2859D80020E1
:100F90008DF803009DF8030007284DD840F2F42097
:100FA00040F2ED2140F2EC2640F22C23C2F2000088
:100FB000C2F20001C2F20006C2F200033C883246CF
:100FC00004EB4404045D9DF8035004FA05F52D0676
:100FD00058BF0A4612789DF8035043F825203A88F6
:100FE00002EB4202024452789DF80350AA401206D6
:100FF000324658BF0A4612789DF8035003EB850528
:101000002A623A8802EB4202024492789DF8035029
:10101000AA401206324658BF0A4612789DF803507D
:1010200003EB85052A649DF8032001328DF8032027
:101030009DF80320082AC1D338880130388001B0D8
:10104000F0BD3888212809D840F22C20C2F20000D7
:101050006021FFF72EFA38880130388001B0F0BDEA
:1010600080B540F2E46040F20811C2F20000C2F222
:10107000000104224FF6FF7302F028F880BD000043
:101080002DE9F04182B00446007800218DF8071068
:10109000D0B140F2080840F2E4650027C2F200082F
:1010A000C2F200050DF1070618F8000031468DF870
:1010B0000700284601224FF6FF7302F007F80137B8
:1010C000F8B2205C0028EFD102B0BDE8F08100004A
:1010D00080B540F262310122884240F20C1108BF13
:1010E0003522C2F2000140F2E4608A70C2F20000D0
:1010F00003224FF6FF7301F0E9FF80BDB0B582B067
:1011000045F299750C463121C0F60005ADF8061080
:10111000ADF80410421C0DF106002946FFF77CF8DB
:10112000621C01A82946FFF777F89DF8060040F2F7
:10113000B811C2F200019DF80420087140F2E46089
:101140008A70C2F2000006224FF6FF7301F0BEFF64
:1011500002B0B0BDFEE7000080B540F21840C2F218
:10116000000000F0E1FA80BDB0B5D0E900CED0E9D2
:101170000F40012505FA00F060600846CCF8043005
:10118000BEF1100F04BF10460A46CCF80800CCF898
:101190000C20B0BD70470000EFF3108072B600BFA6
:1011A000FEE70000B0B581B00022009290F8242044
:1011B000012A01D1022179E04A680123062A80F838
:1011C000243005D803686FF0040C03F1340E0AE0F4
:1011D00003680C2A87BF03F12C0E6FF0400C03F15B
:1011E000300E6FF0220C02EB8202DEF800506244F7
:1011F0001F230C68934025EA030304FA02F21A4302
:10120000CEF80020D1F800E002680EEB4E05102465
:10121000BEF1090F88BF1E3D88BF0C2452F804C0E0
:1012200007238968AB402CEA0303A94019431151F5
:101230002EF001014FF0000C10294FF0000133D1C6
:10124000016842F20042C4F20102914205D0816A73
:1012500041F020018162012126E09268120222D42D
:101260008A68BEF1100F42F400028A601BD140F27E
:101270000401C2F2000109684DF68362C4F21B3218
:10128000A1FB0212910C01EB810149000091009930
:1012900049B100BF009901390091009900294FF030
:1012A0000001F7D100E0002180F824C0084601B019
:1012B000B0BD00000068C06C70470000002804BF8B
:1012C00001207047F0B581B00746044657F8280F53
:1012D00030B90020E06284F82400204600F07AF85B
:1012E0002046FFF7F5FAA26AA16A002808BF12F0AB
:1012F000100205D041F010010120396001B0F0BDAD
:1013000041F2021291430231A162E169D4E9013252
:1013100041EA0305511EB1FA81F149091346B2F5BC
:10132000807F18BF0B02267D217B012E45EA410CF0
:1013300011D141B1A16A41F02001A162E16A41F0FD
:101340000101E16207E0A1694EF60006CFF6FF76E3
:1013500006EB41310B432168B2F5807F4E6826F4DD
:10136000694643EA06034B608B684FF2FD76CFF681
:10137000E17603EA060343EA0C038B6001D0012AFD
:1013800006D122690023CFF6F07303EB025200E08E
:101390000022CB6A23F470031A43CA62896840F6BC
:1013A000FE62CFF61F721140614506D10021E16255
:1013B000A16A012262F301019FE7A06A40F01000D8
:1013C00020F00200A06254F82C0F40F0010101202F
:1013D000274692E780B586B0014640F60000C4F289
:1013E0000100096800F5E05291424FF00001CDE99B
:1013F0000411CDE9021101D006B080BD41F21801FF
:10140000C4F202010A6842F400720A600A6802F437
:1014100000720192019A0A6842F004020A600968A7
:1014200001F0040101910199062102910321039128
:1014300002A900F0BFFA06B080BD00002DE9F0411E
:1014400082B000260D460446019600F0B7FB2168E5
:101450008A68D2053CD480464868C00503D4C86A6F
:1014600010F4700F3ED040F20400C2F20000066893
:10147000022000F025FC216844F624130A69B6FB1B
:10148000F0F0C2F292431A4206D1CA6844F624131D
:10149000C0F292031A423ED00A6942F29243C1F26C
:1014A00049231A4206D1CA6842F29243C0F2490364
:1014B0001A4242D00A6949F24923C0F224031A426F
:1014C0004FF0FC023AD1C968194208BF542235E0F6
:1014D000A06A40F02000A06284F82460012002B0DD
:1014E000BDE8F08120680068800743D46E1C07E0E7
:1014F0002068006880075CD520680068800739D4C0
:10150000002EF9D0002DF3D000F058FBA0EB08001E
:10151000A842EDD8F0E70A6942F29243C1F24923AA
:101520001A424FF0290209D1C96842F29243C0F22F
:101530004903194208BF142200E05422019902FB1A
:1015400000F7B94216D26E1C09E000BF0198B842FC
:101550002FD30198013001900198B8420AD2002E91
:10156000F7D0002DF2D000F029FBA0EB0800A84234
:10157000ECD8EEE720686FF012010160A16A41F437
:101580000071A162806800F46020B0F5602F0CD17A
:10159000207B50B9A06A20F48070A062A06AC004C9
:1015A00003D4A06A40F00100A062002002B0BDE8B0
:1015B000F081A06A40F00400A062002084F82400BA
:1015C000032002B0BDE8F08110B5044690F8240075
:1015D000012804BF022010BD012084F82400204609
:1015E000FFF7A2F918B1002184F8241010BD21687A
:1015F000A26A40F201339A4302F58072A262A26AA3
:1016000022F48012A2624A68520504D5A26A01231C
:1016100063F30D32A262A36A0022DB044FF00003E1
:1016200044BFE36A23F00603E36284F824206FF0EA
:1016300002020A608A6802F460238A68B3F5602FA8
:101640000CBF42F4A00242F480128A6010BD000078
:1016500010B5044690F82400012804BF022010BDF4
:10166000012084F824002046FFF732F928B9A16A46
:1016700041F2011291430131A162002184F824104A
:1016800010BD000080B590F82110022923D1026816
:10169000116821F00E0111602F211368C4F20201BC
:1016A0008A4240F20401C4F2020123F001031360F4
:1016B00015DD3023C4F202039A421CD04423C4F245
:1016C00002039A421AD05823C4F202039A421AD152
:1016D0004FF480331FE004218163012080BD082383
:1016E000C4F202039A420CD01C23C4F202039A42B1
:1016F00009D110230FE04FF480730CE04FF48053B6
:1017000009E0012307E001F1680C4FF080736245A6
:1017100008BF4FF480130B60416B4FF4807202845A
:1017200001B18847002080BD10B50168D0E90FCE17
:10173000DCF800200B685C0726D5042404FA0EF4BC
:10174000144021D00A68920603D40A6822F00402E9
:101750000A602F22C4F20202914240F20402C4F253
:10176000020257DD3023C4F2020399426AD04423B7
:10177000C4F20203994268D05823C4F2020399428A
:1017800068D14FF480236DE09C0729D5022404FA28
:101790000EF4144024D00A68920606D40A6822F097
:1017A0000A020A60012280F821202F22C4F20202DC
:1017B000914240F20402C4F2020237DD3023C4F247
:1017C0000203994254D04423C4F20203994252D0F6
:1017D0005823C4F20203994252D14FF4003357E028
:1017E0001B0758BF10BD082303FA0EF31A4010D090
:1017F0000A6822F00E020A60012101FA0EF2CCF80A
:1018000004208163016B4FF480720029028418BFA9
:10181000884710BD0823C4F20203994218D01C2344
:10182000C4F20203994215D140231BE00823C4F2FD
:101830000203994222D01C23C4F2020399421FD111
:10184000202325E04FF480630CE04FF4804309E04F
:10185000042307E002F168044FF08063A14208BF4F
:101860004FF480031360C16A0029D2D0884710BDAD
:101870004FF400730CE04FF4005309E0022307E03B
:1018800002F168044FF00073A14208BF4FF4001347
:101890001360816A0022002980F82020B9D088478F
:1018A00010BD0000002804BF012070472DE9F04161
:1018B00001684FF6F872CBF6FD724CF6CD430A4440
:1018C000CCF6CC43A2FB03236FF0030707EA930394
:1018D0000027C4F2020700F1040E00F11008C0E96D
:1018E0000F739EE8045098E870010B6843F6F07798
:1018F000BB431A4342EA0C0242EA0E0222432A4345
:10190000324342EA08020A6000214FF48072816388
:101910000284BDE8F04108467047000010B5044657
:1019200090F82000012821D094F821004FF0010CFC
:10193000012884F820C016D1022084F8210000205C
:10194000A063D4F800C0DCF8000020F00100CCF85F
:1019500000002046FFF708FC2068E26A01683AB1FF
:1019600041F00E010AE0002084F82000022010BDA2
:1019700021F004010160016841F00A010160206862
:10198000016841F001010160002010BDB0B50446BE
:1019900000F014F9054640F2C210C2F200000078CF
:1019A000611C18BF044400BF00F008F9401BA042AE
:1019B000FAD3B0BD2DE9F04F82B00E68002E00F0D2
:1019C000F38041F20042C4F20102042340F2004ECF
:1019D000904208BF03234FF6FF7CC4F2010E009330
:1019E00000240123C1F2100C4FF0000A4FF000094F
:1019F00040E0012504F00C030F279F402BEA070766
:101A000005FA03F33B4342F826304E68F203DEF852
:101A1000002054BF22EA080242EA0802CEF8002061
:101A2000DEF80420B30354BF22EA080242EA0802A7
:101A3000CEF80420F302DEF8082054BF22EA0802A0
:101A400042EA0802B30240F20C43CEF80820C4F286
:101A500001031A6854BF22EA080242EA08021A6027
:101A600001230E680AF1010A36FA0AF204F10404AD
:101A700000F09A8003FA0AFB16EA0B08F1D04A68D4
:101A8000624511DC122A51D8DFE802F0340A4246DE
:101A900050505050505050505050505050494D00A0
:101AA000D1F80C9042E000BF4FF6FF75C1F221055E
:101AB000AA420FDC0025C1F21105AA421AD0002566
:101AC000C1F21205AA4215D00025C1F22105AA4291
:101AD00010D02BE00025C1F22205AA420AD0002531
:101AE000C1F23105AA4205D00025C1F23205AA4251
:101AF0001CD100BF8A6842B1012A14BFC0F814B0DB
:101B0000C0F810B04FF0080910E04FF004090DE0E4
:101B1000CA6802F1080909E04FF0000906E0CA6846
:101B200002F1040902E0CA6802F10C0922460546E6
:101B3000B8F5807F24BF203A04352E680F279740E0
:101B4000BE4309FA02F232432A60CA79D2067FF50F
:101B500088AF41F21803C4F202031A684FEA9A06EA
:101B600042F001021A601A6840F6000302F0010216
:101B70000192019AAEF57E7252F826B0C4F20103CA
:101B800098420FD040F60043C4F2010398423FF45C
:101B900030AF41F20003C4F20103009D984208BF38
:101BA000022527E7002525E702B0BDE8F08F0000F9
:101BB000002A08BF090401617047000040F250701C
:101BC000C2F200000068704740F2C21040F250714B
:101BD000C2F20000C2F2000100780A6810440860F6
:101BE0007047000080B5032000F066F8002000F088
:101BF00005F800F02BF8002080BD0000B0B540F2E1
:101C0000C212C2F2000240F204011278C2F20001D4
:101C10004FF47A730968B3FBF2F20446B1FBF2F1B8
:101C2000084600F06BFB0F2C4FF001050CD858B99B
:101C30004FF0FF3021460022002500F02DF840F241
:101C4000C410C2F2000004602846B0BD82B041F268
:101C50001800C4F202000168022241F00101016093
:101C6000016801F0010101910199416841F0805141
:101C70004160406800F08050009000980420C4F259
:101C80000100016862F31A61016002B07047000050
:101C900080B502F049FF80BD70B514460D4606467A
:101CA00002F052FF2946224601F088FF01463046E5
:101CB00002F052FF70BD000080B502F05FFF80BDF2
:101CC00080B502282BD0012827D141F20000C4F2B0
:101CD0000200016A40F202320A40B2F5817F04BF7D
:101CE0004FF4004080BD01F44071B1F5407F0DD04C
:101CF000B1F5007F11D1426A920744BF49F64040D6
:101D000080BDB1F5407F1CBF002080BD00684FF250
:101D10002441800301EAE07080BD002080BD00F016
:101D20001FF941F20001C4F2020149680222C1F325
:101D3000813102EB4101B0FBF1F080BD2DE9F041B2
:101D400082B004460078C0074ED041F21C06C4F2AF
:101D50000206306810F0805808D1306840F080509A
:101D60003060306800F080500190019847F2000721
:101D7000C4F200073868C00512D4386840F4807097
:101D80003860FFF71BFF05463868C00508D4FFF729
:101D900015FF401B6428F7D9032002B0BDE8F0818D
:101DA000706810F4407012D0616801F4407188428C
:101DB0000DD0706840F24042C4F24222012320F468
:101DC000407113600023C0071360716023D17068F5
:101DD000616820F440700843B8F1000F706003D1CF
:101DE000306820F0805030602078800703D40020D5
:101DF00002B0BDE8F08141F21C00C4F2020050F8CC
:101E0000181CA26821F44041114340F8181C00201E
:101E100002B0BDE8F081FFF7D1FE054641F28837F8
:101E200070688007D3D4FFF7C9FE401BB8424FF05B
:101E30000300F5D9ECE70000F0B581B0002851D0DF
:101E40000446006841F204068107C4F2020611D577
:101E5000410703D5316841F4E0613160010703D5E2
:101E6000316841F4605131603168A26821F0F001BD
:101E700011433160C0072CD12068410705D5316876
:101E8000E26821F4E06111433160000706D5306853
:101E9000216920F4605040EAC100306000F072F81F
:101EA000316845F28172C1F30311C0F60002515C42
:101EB00040F2040220FA01F140F2C410C2F2000024
:101EC0000068C2F200021160FFF798FE002001B026
:101ED000F0BD6068022808D0012824D156F8041CFF
:101EE000890306D4012001B0F0BD56F8041C890115
:101EF000F8D5316821F0030108433060FFF75EFE3A
:101F0000054641F2883700BF3068616800F00C0078
:101F1000B0EB810FB0D0FFF751FE401BB842F3D9B0
:101F2000032001B0F0BD56F8041C8907DAD5E0E7BC
:101F300040F20400C2F200000068704780B5FFF76D
:101F4000F7FF41F20401C4F20201096845F29172FF
:101F5000C1F30221C0F60002515CC84080BD000000
:101F600080B5FFF7E5FF41F20401C4F20201096800
:101F700045F29172C1F3C221C0F60002515CC84023
:101F800080BD000041F2040CC4F2020CDCF8003009
:101F900003F00C00082841F20020C0F27A0018BFBC
:101FA0007047C3F383420AA18A5CD90305D440F683
:101FB0000010C0F23D0050437047DCF8281008A321
:101FC00001F00F01595C5043B0FBF1F0704700BFC6
:101FD00002030405060708090A0B0C0D0E0F10106A
:101FE0000102030405060708090A0B0C0D0E0F1069
:101FF0002DE9F04182B0002800F0C480044600784A
:1020000041F20006C007C4F2020643D0706800F037
:102010000C00042817D0706800F00C00082802D1CA
:102020007068C0030FD465682DB1B5F5A02F10D02E
:10203000B5F5803F11D0306820F4803030603068D2
:1020400020F480200CE03068800323D5606808BB52
:1020500098E0306840F480203060306840F4803090
:102060003060FFF7ABFD002D054610D030688003CF
:1020700010D4FFF7A3FD401B6428F7D904E100BF8B
:10208000FFF79CFD401B64284FF0030077D83068B1
:102090008003F5D42078800718D5706810F00C0FF5
:1020A00007D0706800F00C00082826D17068C003C3
:1020B00023D43068800702D52069012862D13068B6
:1020C000616920F0F80040EAC10030602078000724
:1020D0003DD5A06938B30020C4F242200121C0F8E8
:1020E0008014FFF76BFD0546706A80072DD4FFF75B
:1020F00065FD401B0228F7D9C6E02069002840F2A0
:102100000000C4F2422000F0968001210160FFF738
:1021100055FD054630688007D1D4FFF74FFD401BC1
:102120000228F7D9B0E00020C4F242200021C0F814
:102130008014FFF743FD0546706A800707D5FFF757
:102140003DFD401B0228F7D99EE001F04FFD2078AD
:1021500040071BD4E5698DB1706800F00C000828B9
:1021600047D1012D0ED07068216A00F480328A4276
:1021700008D1616A00F47010884203D1002002B0D7
:10218000BDE8F081012002B0BDE8F081F06910F0F7
:10219000805808D1F06940F08050F061F06900F09B
:1021A00080500190019847F20007C4F20007386898
:1021B000C00510D4386840F480703860FFF7FEFC2A
:1021C000054600BF3868C00505D4FFF7F7FC401B83
:1021D0006428F7D958E0E5681DB1052D3CD0012DE4
:1021E0003ED0306A20F001003062306A20F00400F6
:1021F00039E00027C4F2422700203866FFF7DEFCF2
:10220000022D05460CD100BF3068800154D5FFF780
:10221000D5FC401B02284FF00300F5D9AFE700BF03
:1022200030688001AAD5FFF7C9FC401B02284FF097
:102230000300F5D9A3E700210160FFF7BFFC0546C5
:10224000306880077FF542AFFFF7B8FC401B0228DB
:102250004FF00300F4D992E7306A40F00400306296
:10226000306A40F001003062FFF7A8FC002D0546FF
:1022700041F2883714D000BF306A800713D4FFF7CB
:102280009DFC401BB842F7D9032002B0BDE8F081A5
:10229000FFF794FC401BB8424FF003003FF66FAFCE
:1022A000306A8007F4D4B8F1000F7FF453AFF069BF
:1022B00020F08050F0614DE7206AB0F5803F05D1F5
:1022C000F16AA26821F00F011143F1627168626A3C
:1022D00021F4741110430843706001203866FFF741
:1022E0006DFC0446306880013FF548AFFFF766FC9F
:1022F000001B02284FF00300F4D940E780B501F03D
:102300008DFC80BD7047000070470000B0B590F8AC
:102310003C20012A04BF0220B0BD01F108053CCDDC
:10232000D1E900CE23F47C5322F470521A432EF4E8
:10233000F0431A432CF4E0431A4324F4C0431A43F5
:102340002A43C96922F48042036811435964002179
:1023500080F83C100846B0BD10B590F83C20012A2A
:102360004FF002023BD0012380F83C3080F83D2042
:102370000268D2F804E0D2F808C00C682EF07003AE
:10238000234340F2FF74C4F20004A242536012DD02
:1023900040F60003C4F200039A4215D044F2000351
:1023A000C4F201039A420FD042F60043C4F2010383
:1023B0009A4209D00DE0B2F1804F05D040F20043BF
:1023C000C4F200039A4204D149682CF080031943F7
:1023D00091600121002280F83D1080F83C201046D9
:1023E00010BD0000002804BF0120704710B504464E
:1023F00090F83D0028B9002084F83C00204600F009
:102400001FF8022084F83D002068211D02F0D6F854
:10241000012084F8460084F83E0084F83F0084F8E8
:10242000400084F8410084F8420084F8430084F8B6
:10243000440084F8450084F83D00002010BD0000F1
:1024400070B586B00446006841F2FF31C4F2000165
:1024500088424FF00001CDE90411CDE902111FDCE3
:1024600040F2FF71C4F2000188425FDCB0F1804F9E
:1024700000F0A18040F20041C4F20001884240F027
:10248000098141F21C00C4F20200016841F002011E
:102490000160006800F002000190019806B070BD74
:1024A00044F2FF31C4F20101884260DC41F2004194
:1024B000C4F20001884200F0AA8042F60041C4F252
:1024C0000101884240F0E68041F21C00C4F20200A3
:1024D00050F8041C41F4006140F8041C50F8041C3E
:1024E00001F400610191019950F8041C41F00401CC
:1024F00040F8041C50F8040C02A900F004000190FC
:1025000001984FF4805002900020CDE9030040F67E
:102510000000C4F20100FFF74DFA1920002100224B
:10252000FFF7BAFB1920FFF7B3FB3DE040F60001CF
:10253000C4F2000188427ED041F20001C4F20001E1
:10254000884240F0A78041F21C00C4F202000168FA
:10255000002241F0100101600068012100F010002C
:10256000019001983620FFF797FB362076E044F281
:102570000041C4F20101884274D044F60001C4F263
:102580000101884240F0868041F21C00C4F2020042
:1025900050F8041C41F4802140F8041C50F8040C4D
:1025A00000F48020019001981A2001210022FFF7F9
:1025B00073FB1A2052E041F21C00C4F202000168D1
:1025C00040F2184541F0010101600068C2F20005C7
:1025D00000F00100019001988020C4F20200102157
:1025E000002280234FF4007C4FF4006E202685E803
:1025F0000F502846C5E90662FFF754F9002818BFB6
:10260000FEF7CAFDA5626C62256306B070BD41F29B
:102610001C00C4F202000168002241F020010160A8
:102620000068012100F02000019001983720FFF799
:1026300033FB372012E041F21C00C4F202000168B3
:10264000002241F0040101600068002100F0040054
:10265000019001981E20FFF71FFB1E20FFF718FBBB
:1026600006B070BD41F21C00C4F2020050F8041C18
:10267000002241F4003140F8041C50F8040C002101
:1026800000F40030019001981920FFF705FB192094
:10269000FFF7FEFA06B070BD90F83D1001291CBF8F
:1026A00001207047022180F83D10006840F2FF7160
:1026B000C4F20001884212DD40F60001C4F20001BC
:1026C000884215D044F20001C4F2010188420FD0C3
:1026D00042F60041C4F20101884209D00FE0B0F196
:1026E000804F05D040F20041C4F20001884206D17B
:1026F000816801F00701062904BF002070470168C6
:1027000041F00101016000207047000090F83D1089
:1027100001291CBF01207047022180F83D1000688C
:1027200040F2FF72C168C4F20002904241F0010120
:10273000C16012DD40F60001C4F20001884215D0EC
:1027400044F20001C4F2010188420FD042F6004178
:10275000C4F20101884209D00FE0B0F1804F05D0EA
:1027600040F20041C4F20001884206D1816801F0C4
:102770000701062904BF00207047016841F00101EC
:1027800001600020704700000146006841F211130B
:10279000026A1A4208D1026A40F244431A4203D143
:1027A000026822F0010202600122002081F83D202F
:1027B000704700000146006841F21113C26822F020
:1027C0000102C260026A1A4208D1026A40F244431E
:1027D0001A4203D1026822F00102026001220020A5
:1027E00081F83D207047000010B5044690F83C0089
:1027F00001284FF0020008BF10BD012284F83C20E0
:1028000084F83D0020684FF6777382689A438260AF
:102810000A683F2A14DD5F2A18DD602A28D0B2F545
:10282000005F2DD0702A40D1D1E9012CCB686146E0
:1028300001F076FF2068816841F07701816034E023
:102840001F2A0FDC92B1102A10D02EE0402A23D08C
:10285000502A2AD14B68CA68194602F0A3F82068AA
:10286000502120E0202A01D0302A1ED111461AE042
:102870004B68CA68194602F0A7F82068602112E088
:10288000D1E9012CCB68614601F04AFF20688168DC
:1028900041F48041816008E04B68CA68194602F043
:1028A00081F82068402101F047FF012084F83D00B5
:1028B000002084F83C0010BD704700007047000005
:1028C00010B5044600680169890744BFC1685FEA22
:1028D000817138D420680169490744BFC1685FEA43
:1028E00041713CD420680169090744BFC1685FEAAF
:1028F000017141D420680169C90644BFC1685FEA1B
:10290000C16145D420680169C9071CBFC1685FEA7D
:10291000C1714AD120680169090644BFC1685FEAF4
:10292000016149D420680169490644BFC1685FEA72
:10293000416148D420680169890644BFC1685FEAE3
:10294000816147D410BD6FF002010161012121773F
:102950008069800745D02046FFF7B0FF47E06FF061
:102960000401016102212177806910F4407F41D088
:102970002046FFF7A3FF43E06FF008010161042147
:102980002177C06980073ED02046FFF797FF40E0DF
:102990006FF01001016108212177C06910F4407FB8
:1029A0003AD02046FFF78AFF3CE06FF00101016159
:1029B000204600F0F1FAADE76FF08001016120469A
:1029C000FFF7A0FCAEE76FF040010161204600F088
:1029D0000BFBAFE76FF0200101612046FFF794FC8D
:1029E00010BD204600F0B0F8204600F043F900206A
:1029F00020776FE7204600F0A7F8204600F03AF96C
:102A0000002020776EE7204600F09EF8204600F078
:102A100031F9002020776DE7204600F095F8204638
:102A200000F028F9002020776CE7000080B586B020
:102A3000006844F20001C4F2010188424FF0000135
:102A4000CDE90411CDE9021131D040F20041C4F2C8
:102A5000000188424DD0B0F1804F73D141F218008F
:102A6000C4F20200016841F008010160006802A997
:102A700000F00800019001980820029002200390C5
:102A8000059040F60040C4F20100FEF793FF0420D9
:102A9000C4F201004FF2FF320168CFF6FF0202F5E7
:102AA0001062114041F0E06141F4807149E041F26F
:102AB0001800C4F20200016841F0080101600068DA
:102AC00002A900F00800019001984FF480400290A4
:102AD00002200390059040F60040C4F20100FEF78A
:102AE00069FF0420C4F201008169183041F001013E
:102AF00027E041F21800C4F20200016841F0080129
:102B00000160006802A900F00800019001981020FF
:102B1000029002200390059040F60040C4F20100AC
:102B2000FEF748FF0420C4F2010001684FF2FF32B3
:102B3000CFF6FF02114001F1E06101F5807101F56E
:102B4000E061016006B080BD70470000B0B504468A
:102B500090F83C00012804BF0220B0BD4FEAB2004B
:102B60000D460121032884F83C1036D8DFE800F038
:102B7000020A12222068294601F0E6FD206850F87A
:102B8000181F0EE02068294601F01AFE206850F850
:102B9000181F16E02068294601F052FE206850F800
:102BA0001C1F41F008010160016821F0040101606F
:102BB00029690FE02068294601F082FE206850F85C
:102BC0001C1F41F400610160016821F48061016013
:102BD00029690902026811430160002084F83C0061
:102BE000B0BD0000002804BF0120704710B50446A6
:102BF00090F83D0028B9002084F83C00204600F001
:102C00001FF8022084F83D002068211D01F0D6FC49
:102C1000012084F8460084F83E0084F83F0084F8E0
:102C2000400084F8410084F8420084F8430084F8AE
:102C3000440084F8450084F83D00002010BD0000E9
:102C400081B0006844F20001C4F20101884201D061
:102C500001B0704741F21800C4F20200016841F46B
:102C600080310160006800F480300090009801B06D
:102C70007047000070470000B0B5044641B1082914
:102C800009D0042914BF04F1410004F13F0004E01D
:102C900004F13E0001E004F14000007801281CBF6F
:102CA0000120B0BD022041B1082909D0042914BF78
:102CB00084F8410084F83F0004E084F83E0001E01D
:102CC00084F8400020680122012501F0E9FC206819
:102CD000A0F18041A1F596314FEAB121072908D82A
:102CE00005FA01F111F0E10F1EBF416C41F4004102
:102CF000416440F2FF71C4F20001884212DD40F6E7
:102D00000001C4F20001884215D044F20001C4F26F
:102D1000010188420FD042F60041C4F2010188420D
:102D200009D00FE0B0F1804F05D040F20041C4F26D
:102D30000001884206D1816801F00701062904BF1D
:102D40000020B0BD016841F0010101600020B0BD6C
:102D5000B0B5044641B1082909D0042914BF04F1D3
:102D6000410004F13F0004E004F13E0001E004F101
:102D70004000007801281CBF0120B0BD022041B1F5
:102D8000082909D0042914BF84F8410084F83F00C1
:102D900004E084F83E0001E084F840004FEAB1000E
:102DA000032806D8236826A252F82000DA681043C8
:102DB000D86020680122012501F072FC2068A0F192
:102DC0008041A1F596314FEAB121072908D805FACB
:102DD00001F111F0E10F1EBF416C41F4004141646B
:102DE00040F2FF71C4F20001884212DD40F600019A
:102DF000C4F20001884215D044F20001C4F201017E
:102E000088420FD042F60041C4F20101884209D045
:102E10000FE0B0F1804F05D040F20041C4F2000154
:102E2000884206D1816801F00701062904BF00200D
:102E3000B0BD016841F0010101600020B0BD00BFDC
:102E40000200000004000000080000001000000064
:102E5000B0B50446006800220D4601F021FC206850
:102E6000A0F18041A1F596314FEAB121072913D88D
:102E7000012202FA01F111F0E10F0DD0016A41F2D5
:102E80001112114208D1016A40F24442114203D1A9
:102E9000416C21F400414164016A41F21112114276
:102EA00008D1016A40F24442114203D1016821F085
:102EB000010101600120082D09D0042D0BD0002D47
:102EC00014BF84F8410084F83E000020B0BD84F8AF
:102ED00040000020B0BD84F83F000020B0BD0000DD
:102EE000B0B50D464FEAB1010329044606D8226861
:102EF00025A050F82100D1680840D06020682946FC
:102F0000002201F0CDFB2068A0F18041A1F59631AF
:102F10004FEAB121072913D8012202FA01F111F079
:102F2000E10F0DD0016A41F21112114208D1016A7C
:102F300040F24442114203D1416C21F4004141640A
:102F4000016A41F21112114208D1016A40F2444271
:102F5000114203D1016821F0010101600120082D17
:102F600009D0042D0BD0002D14BF84F8410084F843
:102F70003E000020B0BD84F840000020B0BD84F8C1
:102F80003F000020B0BD00BFFDFFFFFFFBFFFFFFC4
:102F9000F7FFFFFFEFFFFFFF70470000B0B50446EB
:102FA00090F83C0001284FF0020008BFB0BD012599
:102FB00084F83C5084F83D00204601F0AFFC002826
:102FC0004FF0010009D12068C16821F04001C160C3
:102FD000C16821F48041C1600020002184F83D5087
:102FE00084F83C10B0BD000070470000002804BF0A
:102FF0000120704710B5044690F83D0028B9002024
:1030000084F83C00204600F021F8242084F83D009C
:103010002068C16821F40051C160204601F0E6FC3F
:103020002068016921F490410161416921F02A0180
:103030004161C16841F40051C16000202021206439
:1030400084F83D1084F83E1010BD000070B586B0C5
:1030500040F60004C4F20104006804F54051002663
:1030600088420596CDE90366029601D006B070BD90
:1030700041F21800C4F20200016802AD41F480413F
:103080000160016801F4804101910199016841F0FA
:10309000040101600068294600F0040001900198D5
:1030A0004FF4007002900220039003200590204608
:1030B000FEF780FC4FF48060CDE9020620462946E9
:1030C0000496FEF777FC06B070BD00002DE9F043D2
:1030D00081B0044690F83D0020280BD10E4600290F
:1030E0004FF0010055D01746002A52D094F83C000A
:1030F000012803D1022001B0BDE8F083012084F84B
:103100003C004FF0000921201D46C4F8409084F88F
:103110003D00FEF753FDA784E784A1680746B1F59B
:10312000805F07D1206900281CBF30464E46B0465C
:10313000064601E04FF0000884F83C9007E000BF2D
:1031400016F8010B21684860E08C0138E084E08CBF
:1031500080B1204680213A462B4601F0B1FC80B96F
:10316000002EEDD138F8020B21686FF35F20486024
:103170000026E9E7204640213A462B4601F0A0FC14
:1031800018B1032001B0BDE8F083202084F83D0091
:10319000002001B0BDE8F08380B54FF6E85001F0A3
:1031A0002DFD4FF6E85001F029FD012000F00CF84C
:1031B000142001F023FD4FF6E85001F01FFD4FF6FB
:1031C000E85001F01BFD80BD70B5064641F20005D8
:1031D000B520C4F2010501F011FDA5F500642046FB
:1031E00040F2044100F0A6F9C22001F007FD3006CC
:1031F00036D4284648F2800100F09CF9700636D596
:10320000284644F2400100F09DF9B00636D5284624
:1032100042F2200100F096F9F00636D5284641F238
:10322000100100F08FF9300736D5284640F6080126
:1032300000F088F9700736D5284640F2044100F0C6
:1032400081F9B00736D5284640F2022100F07AF91C
:10325000F00736D0284640F2011100F073F935E04E
:10326000284648F2800100F06DF97006C8D428465F
:1032700044F2400100F05EF9B006C8D4284642F29C
:10328000200100F057F9F006C8D4284641F2100199
:1032900000F050F93007C8D4284640F6080100F085
:1032A00049F97007C8D4284640F2044100F042F9B9
:1032B000B007C8D4284640F2022100F03BF9F007DD
:1032C000C8D1284640F2011100F034F9382001F04D
:1032D00095FC204640F6080100F034F92A2001F060
:1032E0008DFC204640F6080100F024F970BD000076
:1032F00070B5064641F200050420C4F2010501F054
:103300007DFCA5F50064204640F2044100F01AF966
:10331000022001F073FC300636D4284648F28001C2
:1033200000F008F9700636D5284644F2400100F056
:1033300009F9B00636D5284642F2200100F002F91C
:10334000F00636D5284641F2100100F0FBF83007B0
:1033500036D5284640F6080100F0F4F8700736D557
:10336000284640F2044100F0EDF8B00736D5284673
:1033700040F2022100F0E6F8F00736D0284640F28D
:10338000011100F0DFF835E0284648F2800100F036
:10339000D9F87006C8D4284644F2400100F0CAF8B3
:1033A000B006C8D4284642F2200100F0C3F8F00667
:1033B000C8D4284641F2100100F0BCF83007C8D448
:1033C000284640F6080100F0B5F87007C8D4284632
:1033D00040F2044100F0AEF8B007C8D4284640F2ED
:1033E000022100F0A7F8F007C8D1284640F20111E9
:1033F00000F0A0F8022001F001FC204640F6080190
:1034000000F0A0F8022001F0F9FB204640F6080188
:1034100000F090F870BD0000B0B5044600780028B8
:1034200008BFB0BD002500BFC0B2FFF761FF013586
:10343000E8B2205C0028F7D1B0BD0000032988BFA6
:103440007047DFE801F007020406403002E0143064
:1034500000E0543080B540F08000C0B2FFF7B4FE09
:10346000BDE8804070470000FEE7000081B041F2F7
:103470001801C4F202010A6802430A6009680840A0
:103480000090009801B070472DE9F047B1F8017045
:103490000C4697FAA7F1B1FA81F537FA05F133D066
:1034A000804640F201194FF0011A03E0013537FA66
:1034B00005F029D027FA05F0C007F7D0B5F10800CC
:1034C0000AFA00F040F08066606838BF09FA05F635
:1034D000082804D122694046314600F05FF862684E
:1034E0004046314600F032F8606840F00800092894
:1034F000DCD1A2684046314600F05EF8E268404602
:10350000314600F037F8D1E70020BDE8F087000031
:1035100040F60800C4F20100006800F001007047A6
:103520008068C1F30F210840401AB0FA80F04009CA
:1035300070470000C1F30F2141617047C1F30F21B3
:1035400041617047C1F30F210161704780B54FEAB7
:10355000116E91FAA1F1B1FA81F15EF800C0890013
:103560000F238B402CEA030302FA01F119434EF8B2
:10357000001080BD80B54FEA116E91FAA1F1B1FA49
:1035800081F15EF800C0890004238B402CEA03031C
:1035900002FA01F119434EF8001080BDC3684FEAEA
:1035A000112C23EA11219CFAACF3B3FA83F39A406D
:1035B0001143C1607047000080B54FEA116E91FA67
:1035C000A1F1B1FA81F15EF800C0890003238B40BC
:1035D0002CEA030302FA01F119434EF8001080BDF2
:1035E000B0B584B040F2E83042F200410024C2F2AB
:1035F0000000C4F201014FF4602201250394CDE9DB
:10360000014404730475C261C0E90014846005615B
:10361000FDF754FE68B940F2E830C2F2000001A99B
:10362000CDE901550394FDF7BDFD002804BF04B0AA
:10363000B0BDFDF7B1FD000080B582B041F21400CD
:10364000C4F202000168002241F00101016000683B
:10365000012100F00100019001981120FEF71CFBF0
:103660001120FEF715FB02B080BD00002DE9F047E8
:1036700086B0002410200594CDE90344CDE901442F
:10368000FFF7F4FE2020FFF7F1FE04200426FFF7E9
:10369000EDFE08204FF0080AFFF7E8FE40F600496B
:1036A000C4F2010941F2130809F58065C0F203482C
:1036B00028464146FFF742FF4EF2E771C0F205414E
:1036C0004846FFF73BFF40F20110CDE90106A9F59E
:1036D000806701AE38463146FFF7D6FE4FF2F00064
:1036E000CDE9010A384631460594FFF7CDFECDF805
:1036F00004804FF00108022728463146CDF80880A3
:10370000CDE90374FFF7C0FE4EF2E770C0F201404E
:10371000CDE9010848463146CDE90374FFF7B4FE10
:103720000420C0F20440CDE9010848463146CDE905
:1037300003740594FFF7A8FE1C20C0F21C40CDE9DD
:10374000010A284631460594FFF79EFE0220C0F28A
:103750000240CDE9010A484631460594FFF794FE40
:1037600006B0BDE8F087000010B592B040F2A4406A
:1037700044F200010024C2F20000C4F2010102235D
:103780001194CDE90F44CDE90D44CDE90B44CDE9C9
:103790000944CDE90744CDE90544CDE90344CDE929
:1037A000014440F2AF4280E81600C0E90334C0E9AA
:1037B0000544FFF717FAA8BB40F2A440C2F200008C
:1037C00010A9CDE91044FEF7C7FD58BB6020099051
:1037D00001200A9040F2A4400024C2F2000009A98E
:1037E0000022CDE90B44CDE90D440F94FFF7AEF96B
:1037F000C0B94FF40050069040F2A440C2F200005D
:1038000001A90594CDE90344CDE901440894FEF7EC
:103810007DFD38B940F2A440C2F20000FFF706F97E
:1038200012B010BDFDF7B8FC80B540F2EC4044F298
:103830000041C2F20000C4F20101002317224FF63A
:10384000FF7C80E80E10C0E904338361FEF7CAFDF7
:10385000002808BF80BDFDF79FFC000080B540F246
:10386000345044F60001C2F20000C4F2010100230A
:10387000172242F2107C80E80E10C0E90433836105
:10388000FEF7B0FD002808BF80BDFDF785FC0000F5
:1038900010B588B040F25C4042F600410024C2F20C
:1038A0000000C4F2010140F67F420794CDE90544CF
:1038B000CDE90344CDE90044C0E90014C0E9024267
:1038C000C0E904448461FEF78DFDE8B90720039048
:1038D0007020CDE9040440F25C40C2F2000003A96C
:1038E000CDE90644FFF75AFB70B920200090002074
:1038F000019040F25C40C2F200006946FEF72CFDE8
:10390000002804BF08B010BDFDF746FC10B58EB00E
:1039100040F27C500021C2F200004FF080424FF68E
:10392000FF730D91CDE90B11CDE90911CDE9071117
:10393000CDE90511CDE90311CDE90111C0E900215F
:10394000C0E9021301618161FEF74CFD90BB4FF4A9
:1039500080500A9040F27C50C2F200000AA9FEF7A3
:1039600043FF38BB40F27C50C2F20000FFF73AF947
:1039700000BB40F27C500024C2F2000008A9CDE94F
:103980000844FEF7E9FCA8B96020CDE9010440F243
:103990007C50C2F2000001A9042203940594FFF7B1
:1039A000D5F838B940F27C50C2F20000FFF73EF87B
:1039B0000EB010BDFDF7F0FB10B58EB040F2C45054
:1039C00040F200420021C2F20000C4F2000240F2C4
:1039D000AF4304240D91CDE90B11CDE90911CDE9D7
:1039E0000711CDE90511CDE90311CDE90111C0E9B8
:1039F0000023C0E9021401618161FEF7F3FCA0BB62
:103A00004FF480500A9040F2C450C2F200000AA95C
:103A1000FEF7EAFE48BB40F2C450C2F20000FFF7D6
:103A2000E1F810BB2020089040F2C4500024C2F2FC
:103A3000000008A90994FEF78FFCB0B9602001903E
:103A40000220CDE9020440F2C450C2F2000001A9F4
:103A500000220594FFF77AF838B940F2C450C2F258
:103A60000000FEF7E3FF0EB010BDFDF795FB000070
:103A700080B586B040F20C6040F600020021C2F230
:103A80000000C4F2000245F6BF534FF4C87CCDE9F4
:103A90000411CDE90211CDE90011C0E90023C0E90C
:103AA000021C01618161FEF79DFCC0B94FF480509A
:103AB000029040F20C60C2F2000002A9FEF794FEF0
:103AC00068B90020CDE9000040F20C60C2F20000AD
:103AD0006946FEF741FC002804BF06B080BDFDF733
:103AE0005BFB000010B582B040F2546041F200016F
:103AF0000024C2F20000C4F200014FF4FA73CDE9D1
:103B00000044172280E81600C3608461FEF76AFC57
:103B100060B940F25460C2F200006946CDE9004449
:103B2000FEF71AFC002804BF02B010BDFDF734FBFD
:103B300010B582B040F29C6041F200410024C2F214
:103B40000000C4F200016423CDE90044EF2280E8C4
:103B50001600C3608461FEF745FC68B92020CDE9FA
:103B6000000440F29C60C2F200006946FEF7F4FBDC
:103B7000002804BF02B010BDFDF70EFB80B540F277
:103B8000E46043F60001C2F20000C4F20101002328
:103B90004FF00C0C4FF4165280E80E00C0E90333CE
:103BA000C0E905C3C361FFF721FA002808BF80BD43
:103BB000FDF7F2FAFEE70000FEE7000000F0070064
:103BC00080F00703042B28BF04234FF0FF3C033889
:103BD0000CFA03F338BF0020994381400CFA00F03F
:103BE00022EA0000084370477047000081B040F2AD
:103BF0000400C2F20000006844F6D351C1F2620131
:103C0000A0FB0101480A009000BF0098411E002857
:103C10000091F9D101B0704770470000B0B501388C
:103C20000024B4EB106F1CBF0120B0BD4EF2100594
:103C3000CEF2000568604FF0FF300F2100F08CFFDE
:103C40000720AC6028602046B0BD000080B5FDF7BD
:103C5000BBFF80BD70B592B008AC20462821FCF7B0
:103C600028FC0120002508904FF480300226CDE981
:103C70000905CDE90F604FF4802011902046CDE971
:103C80000655CDE90455CDE90255CDE90055FEF7BD
:103C9000AFF9A8B90F20CDE9030603A80021CDE9AB
:103CA00005550795FEF7C8F850B90220009000208E
:103CB00002906846FEF742F8002804BF12B070BDBB
:103CC000FDF76AFA7047000070470000B0B50120A8
:103CD000FCF774FE40F2E834C2F200042046FDF71F
:103CE00073FC20460A21FDF7A9FB2046FDF7B0FC36
:103CF0002046FDF7DFFA40F2FF31A1EB900040F2E1
:103D0000307400EB8001C2F200044A0081B22080CE
:103D100090B20A4600F042FF228840F2B130C2F26F
:103D2000000022A1FCF778FA2188B1F5C87F05D9F7
:103D3000C1EB011080B20A4600F030FF2188B1F5D6
:103D40002F7F06D901EB8100800080B20A4600F087
:103D500025FF208840F23274B0F57A7FC2F2000469
:103D600008D340F2C450C2F200000021FFF770F8FF
:103D700001250DE040F2CA3188420AD8207840B1CE
:103D800040F2C450C2F2000000210025FEF774FF8B
:103D9000257040F25C40C2F20000FEF791FD40F257
:103DA0003450C2F20000FEF78BFDB0BD2530346404
:103DB000000000002DE9F04140F2A44041F200046F
:103DC000C2F200000021C4F20104FFF741F82046CE
:103DD0004FF400710022FDF7EBFE40F2C630C2F254
:103DE00000000178002960D040F20F16C2F20006F0
:103DF000307800285BD0322000F0F2FE40F24978A3
:103E0000C2F20008002720464FF48071012288F892
:103E10000070FDF7CDFEA4F5806528464FF4807153
:103E20000122FDF7C5FE192000F0DAFE28464FF406
:103E300080710022FDF7BCFE20464FF48071002205
:103E4000FDF7B6FE40F2C830C2F20000018840F231
:103E50005534013101808AB2C2F2000445F2A171E9
:103E6000C0F600012046FCF7D7F940F25C35C2F2FB
:103E7000000505F11C0021460522FCF741FB9920B5
:103E800085F822003C2085F824004FF4967085F8D0
:103E9000547000F0A5FE40F20C60C2F2000088F8F9
:103EA0000070FEF733FC377001E00121017001F072
:103EB0004FF840F25C40C2F20000FEF701FD40F214
:103EC000EC40C2F20000FEF7FBFCBDE8F081000010
:103ED00010B540F20C64C2F200042046FEF7F0FC7C
:103EE00040F20F10C2F20000012101702046FEF7DF
:103EF00061FC10BD70B501F02BF840F20F10C2F25A
:103F00000000007800285CD000F0EAFF40F249741D
:103F1000C2F20004207878BB40F22970C2F200009F
:103F2000007848B340F22E7040F25C36C2F20000D6
:103F30000025C2F200060570202006F1150486F85F
:103F4000220086F8240006F13F002146FCF785FA9E
:103F500040F24F11C2F200012046FCF77EFA40F217
:103F60005464C2F20004204686F85450FEF7A8FCC0
:103F70002046FEF71FFC70BD642000F031FE00F00B
:103F8000AFFF40F2C030C2F200000078C8B941F281
:103F90000000C4F201004FF4007101220125FDF779
:103FA00007FE40F25C30C2F20000982180F8221037
:103FB000202180F824100021257080F8541000F092
:103FC00073FF40F25460C2F20000FEF779FC70BD4E
:103FD0002DE9F04383B040F2C438C2F2000898F8EB
:103FE0000000002818BF00F07BFF40F60044C4F238
:103FF00001040221C0F202412046FFF791FA002895
:1040000077D1204642F22001FFF78AFA40F2E037EA
:10401000C2F2000708B100206AE03888B0F52F7FAF
:1040200064D920464FF4807100220026FDF7C0FDC0
:1040300020464FF400710022FDF7BAFD2046802192
:104040000122FDF7B5FD204640210122FDF7B0FD1C
:1040500040F25C3540F2C830C2F20005C2F2000006
:10406000028885F8546045F2A1710DF10606C0F68C
:1040700000013046FCF7D0F840F22511C2F20001F1
:104080002846FCF7EAF940F2CA3105F11500C2F200
:104090000001FCF7E2F905F11C0031460522FCF7AE
:1040A0002FFA00F0D5FD40F20C60C2F20000FEF7DE
:1040B0006BFB40F25460C2F20000FEF765FB40F279
:1040C0009C60C2F20000FEF75FFB40F25C40C2F26F
:1040D0000000FEF76FFB40F2A445C2F2000528463F
:1040E000FEF768FB28460021FEF7B2FE3888013053
:1040F000388000F02DFF40F25430C2F20000017809
:10410000032904BF0021017040F23370C2F20000A5
:104110000178052904BF0021017040F2C530C2F2C8
:1041200000000178052904BF0021017040F29C6065
:10413000C2F20000FEF7C4FB98F8000038B398F80C
:104140000000002840F0908140F25470C2F200005C
:10415000007840F22E75002840F2BE10C2F2000036
:10416000C2F2000500F006810178002900F01681F6
:104170002978002900F0368140F23471C2F2000142
:1041800093220A708A710A7349F2934229E1A4F5D5
:104190008065284640F20111FFF7C2F940F22E7601
:1041A0000028C2F2000654D03078002851D02046B2
:1041B0004FF4807100220025FDF7FAFC20464FF4F1
:1041C00000710022FDF7F4FC204680210122FDF75A
:1041D000EFFC204640210122FDF7EAFC40F25C3072
:1041E00040F28E11C2F20000C2F2000180F8545079
:1041F000FCF733F940F2A3111530C2F20001FCF7CD
:104200002CF900F025FD40F20C60C2F20000FEF730
:10421000BBFA40F25460C2F20000FEF7B5FA40F279
:104220009C60C2F20000FEF7AFFA40F25C40C2F2BE
:104230000000FEF7BFFA40F2A444C2F20004204698
:10424000FEF7B8FA20460021FEF702FE03B0BDE8F3
:10425000F083284640F20111FFF762F900283FF48D
:104260006EAF307800287FF46AAF40F2DF35C2F2DB
:104270000005287850B140F2EE22C2F20002107818
:1042800091781279FCF7AEFB0020287020464FF49D
:10429000807100224FF00009FDF78AFC20464FF4A0
:1042A00000710022FDF784FC40F26230FCF710FF41
:1042B00040F25C37C2F2000707F1150540F2CA313F
:1042C000C2F20001284687F85490FCF7C6F8A120F6
:1042D00087F82100A02087F82300962087F8250082
:1042E000942087F8280040F2C630C2F2000080F81F
:1042F000009040F24970C2F20000012101704CF2BE
:104300005030317000F07AFC4CF2503000F076FC06
:1043100040F25C40C2F2000040F67F41C160FEF70F
:1043200061F8002818BFFCF737FF40F22976C2F287
:104330000006307820B107F13F012846FCF78DF8E0
:104340000020307040F25C40C2F20000FEF7DEF95F
:1043500040F2A445C2F200052846FEF7D7F92846E8
:104360000021FEF789FC40F25460C2F20000FEF723
:10437000CDF9E4E640F22871C2F200010978022981
:1043800017D0012921D069BB40F23471C2F200017B
:104390005B220A705D228A7120221FE040F2347194
:1043A000C2F2000196220A708A710A7349F296429B
:1043B00017E040F23471C2F2000120220A708A71C3
:1043C0005B220A7349F25D520BE040F23471C2F293
:1043D000000120220A705B228A715D220A7349F271
:1043E00020524A82007840F22976C2F2000648B391
:1043F00040F2C130C2F20000007818B3287808BB40
:10440000204680210022FDF7D3FB204640210022D8
:10441000FDF7CEFB40F234703278C2F200009321F7
:1044200001708171017349F29341418252B940F2A6
:104430005C30C2F2000040F264111530C2F200019B
:10444000FCF70BF82878002808BFFCF77FFB3078D2
:104450002978084308D140F2EE22C2F20002107817
:1044600091781279FCF7BEFA98F80000B8BB40F2D8
:10447000EE27C2F2000740F22A7445F29C753A8892
:10448000C2F20004C0F6000520462946FBF7C4FE30
:1044900040F2E2367A88C2F2000630462946FBF73F
:1044A000BBFEBA8840F2B637C2F20007384629464A
:1044B000FBF7B2FE40F23475C2F20005E81C21465B
:1044C0000322FCF71DF805F1090031460322FCF731
:1044D00017F805F10F0039460322FCF711F898F898
:1044E000000000285AD040F25C34C2F2000440F2CE
:1044F00010174FF0203026462546C2F20007C4E9C7
:1045000002002061206046F8040FC4F81900C4F8C6
:104510001D00C4F82100C4F8250045F8150F2046F9
:1045200039460422FBF7ECFF40F2B131C2F2000140
:1045300030460422FBF7E4FF04F109003946042267
:10454000FBF7DEFF40F2BA3104F10D00C2F20001C8
:104550000222FBF7D5FF5B20E07340F2C030C2F2CD
:10456000000000783121002808BF302121745D202F
:1045700040F21B116074C2F2000128460922FBF7C9
:10458000BFFF40F2151104F12300C2F20001052221
:10459000FBF7B6FF002084F8540009E040F25C30DD
:1045A00040F23471C2F20000C2F20001FBF755FF85
:1045B00000F04EFB03B0BDE8F083000080B540F290
:1045C000FF730268C4F20003984205DCB0F1804F2B
:1045D0000ED040F2004307E042F60043C4F201036C
:1045E000984205D040F60003C4F20003984203D17C
:1045F0004B6822F070021A4342F6FF33C4F2010303
:1046000098420EDD44F2FF33C4F20103984218DCF5
:1046100042F60043C4F2010398421ED044F2000364
:1046200017E0B0F1804F18D040F20043C4F200030D
:10463000984212D040F60003C4F2000398420CD016
:104640000FE044F60003C4F20103984205D044F29F
:104650000043C4F20103984203D1CB6822F44072B4
:104660001A434B6922F0800E8A6843EA0E03D1F8A0
:1046700000C00360C262A0F18042A2F596324FEA08
:10468000B222072AC0F828C007D8012303FA02F291
:1046900012F0E10F1CBF096901630121416180BD76
:1046A00080B501F01F014FF0010CD0F820E00CFAAA
:1046B00001F32EEA03030362036A02FA01F11943CC
:1046C000016280BD10B5446A616A81420CD0A16A62
:1046D00081420ED0E16A814211D0216B814214D017
:1046E000012084F83D0015E00120207784F83E0089
:1046F00010E002202077012084F83F000AE0042027
:104700002077012084F8400004E008202077012071
:1047100084F841002046FEF7CFF80020207710BD36
:10472000D0F808C011432CF47F4C41EA032141EA40
:104730000C01816070470000826822F07002114312
:1047400041F0070181607047B0B5026AA0F1804472
:1047500022F001020262036A4268D0F818C08D6834
:10476000A4F59634D1F800E023F002034FEAB42414
:10477000072C43EA05030AD80125A54015F0E10FEF
:104780001FBFCD6823F00C0325F004052B43072C35
:104790000BD8012505FA04F414F0E10F1FBF22F431
:1047A0004072D1E9054522432A432CF0730545EABE
:1047B0000E0542608561496841630362B0BD000037
:1047C000B0B5026A42F6004422F010020262026AA8
:1047D000C4F201044368D0F818C0A0428C6822F0EB
:1047E000200242EA041208D1CC6822F0C00E6FF019
:1047F000400202EA041242EA0E02A0F18044A4F54B
:104800009634D1F800E04FEAB424072C0DD80125E6
:1048100005FA04F414F0E10F1FBF23F44063D1E95B
:10482000054543EA840343EA85032CF4E64545EA5B
:104830000E2543608561496881630262B0BD000056
:10484000B0B5026A42F6004422F480720262026A43
:10485000C4F201044368D0F81CC0A0428C6822F462
:10486000007242EA042209D1CC6822F4406E24028C
:1048700040F2FF4224EA020242EA0E02A0F1804422
:10488000A4F59634D1F800E04FEAB424072C0DD8F3
:10489000012505FA04F414F0E10F1FBF23F440537F
:1048A000D1E9054543EA041343EA05132CF07305E7
:1048B00045EA0E054360C5614968C1630262B0BD47
:1048C00070B5026AA0F1804522F480520262A5F51B
:1048D0009635026A4368D0F81CE00C68D1F808C02D
:1048E0004FEAB525072D0AD8012606FA05F515F079
:1048F000E10F1EBF4D6923F4804343EA85132EF474
:10490000E64646EA04264360C66122F4005249683E
:1049100042EA0C320164026270BD000080B500689A
:10492000826822F0770ED1E900C222F0070343EA41
:104930000E0343EA0C0E6FF0030303EB3213032B59
:10494000C0F808E023D8DFE803F002161D24BCF10C
:10495000050F04BF012080BD026A036A23F0010332
:1049600003628369096923F0F00343EA011181615D
:104970000262002080BD8B680A69194600F012F8B7
:10498000002080BD8B680A69194600F01DF80020E0
:1049900080BDD1E9022C0B696146FFF7C1FE002002
:1049A00080BD0000D0F820C0036A23F00103036239
:1049B000836923F0F00343EA02122CF00A0319433F
:1049C0008261016270470000036A23F010030362F2
:1049D0008369D0F820C023F4704343EA02322CF0FC
:1049E000A00343EA011182610162704710B50446D9
:1049F0000068D4E902C22369016921F440511143DE
:104A00000161626943EA0C01E3691143C268194319
:104A100049F20C639A431143C1604169A26921F4D0
:104A20004071114343F60002C4F201029042416119
:104A300002D0FDF783FA01E0FDF792FAE2696168BE
:104A40001923B2F5004F03FB00F01BD14900B0FB66
:104A5000F1F048F21F51C5F2EB11A0FB01235A09F6
:104A60006FF0630302FB0300322303EBC000A0FBE3
:104A700001014FF4F87000EA111000EB0210C1F3CD
:104A8000421119E08900B0FBF1F048F21F51C5F264
:104A9000EB11A0FB01235A096FF0630302FB030033
:104AA000322303EB0010A0FB0101F02000EA5110BB
:104AB00000EB0210C1F3431122680843906010BD5F
:104AC0002DE9F0410446006800680840884202D1A0
:104AD0000020BDE8F0811D460E4690465F1C04E0B4
:104AE000206800683040B042F2D0002FF8D02DB1DD
:104AF000FDF764F8A0EB0800A842F1D92068C1686E
:104B000021F4D071C160416921F00101416120208F
:104B100084F83D0084F83E00002084F83C00032027
:104B2000BDE8F081FEE70000002848BF704700F0B4
:104B30001F01012202FA01F14EF200124009CEF2E9
:104B4000000242F8201070474EF60C50CEF20000E2
:104B50000068C0F3022070474EF6145300F00F02B5
:104B6000CEF2000309011A4400F16043B0F1FF3FA7
:104B7000C8BF03F564421170704700004EF60C5137
:104B8000CEF200010A684FF6FF031A4060F30A22D2
:104B900042F0806040F0FD700860704780B50844C6
:104BA000911C414040F2C450C2F200004160FDF748
:104BB00019FC002808BF80BDFEF7EEFA0020002196
:104BC000FEF73CFC02A0FEF727FCFCF7E5FA00BF6D
:104BD00054494D332050574D20455252000000009B
:104BE000B0B5002808BFB0BD044600254FF47A7068
:104BF00000F004F80135A542F8D3B0BD10B582B07D
:104C0000ADF80600BDF8060040F2C231C2F2000164
:104C10000880BDF8060040F2EC44002804BF0120E3
:104C2000ADF80600C2F200042068002141626FF076
:104C3000010101612046FDF72FFD2068416ABDF8A2
:104C40000620914202D20169C907F7D002B010BD17
:104C5000B0B540F25C34C2F2000494F8540000286D
:104C600018BFB0BD00200021FCF748FA2046FCF731
:104C700007FA002001210125FCF740FA04F1150094
:104C8000FCF7FEF984F85450B0BD000098B040F62F
:104C9000004440F2C010C4F20104C2F20000012737
:104CA0000780204680210122FCF782FF40F25C3819
:104CB000C2F2000840462A212022FBF7F2FB40F214
:104CC000CA3040F23A11C2F20000C2F20001FBF712
:104CD000C4FB40F2347040F27911C2F20000C2F21B
:104CE0000001FBF7BAFBFCF77DFFFEF7B3FFFEF711
:104CF000BDFCFEF7A1FCFEF7F5FEFEF707FEFEF792
:104D000017FFFEF759FEFEF7C3FDFEF769FCFEF73D
:104D10002BFDFEF733FFFEF7A1FDFEF785FDFEF745
:104D2000A7FE204680210122FCF742FF20464021B9
:104D30000122FCF73DFFFEF7C7FFFBF771FE0020E5
:104D400000210022FBF74EFEFBF700FFFEF7E0FB21
:104D5000002845F2F07040F2C436C0F60000C2F2FE
:104D6000000618BF377090E88E000569007D0DF1D0
:104D7000480C8DF85C0045F2D870C0F600008CE855
:104D80008E00169590E88E000569007D0DF1300CBF
:104D90008DF8440045F2C070C0F600008CE88E002B
:104DA000109590E88E000569007D0DF1180C8DF8C6
:104DB0002C0045F2A870C0F600008CE88E000A9521
:104DC00090E88E000569007D8DE88E008DF8140056
:104DD00064200495FCF7DAFD3578FCF741F940F2E0
:104DE0006230FCF775F900200021FCF787F93DBB24
:104DF00012A8FCF745F94FF49670FCF7C7FD0020A8
:104E00000121FCF77BF90CA8FCF73AF94FF49670F6
:104E1000FCF7BCFD00200121FCF770F96846FCF7A7
:104E20002FF94FF49670FCF7B1FD00200121FCF73B
:104E300065F906A8FCF724F94FF41670FCF7A6FDF7
:104E4000307810B1FCF70CF90BE008F1150006A959
:104E5000FBF703FB40F27911C2F200014046FBF779
:104E6000FCFA20464FF4806100220024FCF7A0FEEB
:104E700088F8544040F2C454C2F200042046FDF7C2
:104E800045FC20460021FDF7F7FE40F29C60C2F28F
:104E90000000FDF73BFC40F23450C2F20000FDF789
:104EA00035FC00BFFEE7000080B540F2A440C2F22E
:104EB00000000021FDF74CFF80BD0000B0B540F2BE
:104EC000A445C2F20005044628460021FDF740FF34
:104ED0002046FFF793FE28460021FEF701F8B0BDFB
:104EE00010B50220FBF76AFD40F2E834C2F200047C
:104EF0002046FCF769FB20460A21FCF79FFA204672
:104F0000FCF7A6FB2046FCF7D5F93F2140F2BE3462
:104F1000A1EB9010C2F20004208082B240F2BA30BD
:104F2000C2F2000006A1FBF777F9208800212828AB
:104F300040F2C030C2F2000088BF0121017010BDF4
:104F400025303264000000004843000A704700002A
:104F50002DE9F04740F60005C4F2010505F580642F
:104F6000204601210122FCF723FE284641F21001D0
:104F7000FEF7D6FA40F2C43640F25C3AC2F20006BE
:104F8000C2F2000A28B1307878B130208AF82800BF
:104F90007DE0284642F22001FEF7C2FAD8B130780F
:104FA00028B338208AF8280071E040F25471C2F228
:104FB0000001002009788AF8540040F2543000299A
:104FC000C2F2000060D1017840F24C72C2F20002DD
:104FD0003023535458E0284644F24001FEF7A0FA2B
:104FE000D0B1307820B335208AF828004FE040F265
:104FF0005470C2F200000078002100288AF8541092
:105000003ED140F25430C2F20000007840F24C71C0
:10501000C2F20001382232E0284648F28001FEF751
:105020007FFAE0B33078B8B132208AF828002EE059
:1050300040F25470C2F20000007800218AF8541047
:10504000F0B940F25430C2F20000007840F24C71E6
:10505000C2F20001352212E040F25470C2F20000A8
:10506000007800218AF8541050B940F25430C2F24E
:105070000000007840F24C71C2F2000132220A5462
:1050800040F25430C2F200000178013101704FF655
:10509000E850FFF7B3FD4FF6E850FFF7AFFD2046AD
:1050A00001210022FCF784FD0A20FFF7A7FD20461E
:1050B00002210122FCF77CFD284641F21001FEF797
:1050C0002FFA28B1307890B123208AF82800E1E047
:1050D000284642F22001FEF723FA00286DD03078EE
:1050E000002800F0878039208AF82800D2E040F2BA
:1050F0002978C2F2000840F2547940F2DF3798F87C
:105100000010C2F20009C2F2000799F800003A78D4
:10511000002300298AF8543018BF002859D142B919
:1051200039B130B1002000210022FBF75BFC0120E7
:10513000387040F22E70C2F20000017899F8000039
:1051400000291EBF0028012188F80010002840F027
:10515000A18040F24C78C2F200080027404688F84F
:105160000370FBF76DF940F22871C2F200010A7872
:1051700040F2EE2CC2F2000C83B22CF8120040F286
:105180005430C2F20000B3F5807F077024BFFF20C7
:105190002CF81200501CC2B2032A087009D100205A
:1051A000087040F2C1310120C2F2000189F800000C
:1051B00008700020C8F800006CE0284644F2400166
:1051C000FEF7AEF958B33078A8B336208AF8280035
:1051D00060E0002AA3D040F2EE22C2F20002107872
:1051E00091781279FBF7FEFBFBF7B0FC00203870DA
:1051F000BDE8F08740F25470C2F200000078002150
:1052000000288AF854103ED140F25430C2F2000017
:10521000007840F24C71C2F20001392232E0284697
:1052200048F28001FEF77CF9E0B33078B8B1332062
:105230008AF828002EE040F25470C2F20000007894
:1052400000218AF85410F0B940F25430C2F2000044
:10525000007840F24C71C2F20001362212E040F2B6
:105260005470C2F20000007800218AF8541050B93E
:1052700040F25430C2F20000007840F24C71C2F2A9
:10528000000133220A5440F25430C2F20000017887
:10529000013101704FF6E850FFF7B0FC4FF6E850CF
:1052A000FFF7ACFC204602210022FCF781FC0A201B
:1052B000FFF7A4FC204604210122FCF779FC2846D4
:1052C00041F21001FEF72CF928B1307878B12A208C
:1052D0008AF8280085E0284642F22001FEF720F9EE
:1052E00018B3307868B337208AF8280079E040F2A4
:1052F000BE10C2F20000017800208AF8540071B19B
:1053000040F25471C2F20001087040F22871C2F2FA
:105310000001087040F2C131C2F20001087040F291
:105320004C71C2F2000108605BE0284644F2400183
:10533000FEF7F6F8D0B1307820B334208AF8280090
:105340004FE040F25470C2F20000007800210028C3
:105350008AF854103ED140F25430C2F20000007876
:1053600040F24C71C2F20001372232E0284648F286
:105370008001FEF7D5F8E0B33078B8B131208AF873
:1053800028002EE040F25470C2F2000000780021A4
:105390008AF85410F0B940F25430C2F2000000789C
:1053A00040F24C71C2F20001342212E040F254701B
:1053B000C2F20000007800218AF8541050B940F27F
:1053C0005430C2F20000007840F24C71C2F2000189
:1053D00031220A5440F25430C2F200000178013107
:1053E00001704FF6E850FFF709FC4FF6E850FFF761
:1053F00005FC204604210022FCF7DAFB05F50066D7
:10540000304610210122FCF7D3FB284641F210015F
:10541000FEF786F828B9284642F22001FEF780F808
:1054200030B1304610210022FCF7C2FBBDE8F08706
:10543000284644F24001FEF773F858B140F22E704E
:10544000C2F2000000780028EBD120464FF48061C2
:10545000002211E0284648F28001FEF761F800289A
:10546000DFD040F22E70C2F2000000780028D8D1C0
:1054700020464FF480610122FCF79AFB40F2A444DD
:10548000C2F2000442F27F5060602046FDF7AAFBA2
:1054900008B1FBF781FE4CF25030FFF70FFD40F2F0
:1054A000AF4060602046FDF79DFB0028B9D0FBF7B8
:1054B00073FEB6E730380A2801D201207047002079
:1054C0007047000010B500290AD00878002807D0DE
:1054D00005487844FBF7B4F9002801D0002010BD3E
:1054E0000248784410BD0000560300004E0300003F
:1054F0004FEA41034FEA5353A3F58063D3F11E03F0
:10550000C8BFD3F1210C0CDD4FF0004242EAC122AA
:1055100042EA505232FA03FC8CEAE17CACEBE170D7
:105520007047102BC4BF0020704703F5787CBCF196
:10553000FF3F04D06FF0004282EA2100704770B54F
:1055400000F0C2F84992248000207047F2E7B0FAD8
:1055500080F310FA03F10AD0C3F11D0303F5806351
:105560004FEA03524FEA415002EBD12170474FF00E
:105570000000704770B5DFF848C11CEA111E1EBF5D
:105580001CEA13159EEA0C0F95EA0C0F00F06F80D1
:1055900081EA03044EEAD47EAE4421EA4C1123EAA8
:1055A0004C1341F4801143F48013AEF17F7EA1FBD4
:1055B000024CA0FB0365361955EB0C05A1FB034C0F
:1055C0004CF10003A0FB021C16EB0C06654153F1E5
:1055D0000003094218BF46F0010613F4007F0BD107
:1055E0004FEA03314FEA053041EA155140EA1650BF
:1055F00034036FF003020AE04FEAC3214FEAC520EB
:1056000041EA555140EA5650F4026FF0020202EBB3
:105610002E4201EB025585EACE710AD05FEA440CB6
:1056200018BF24F0004450F1000041F1000120EACD
:10563000D47040F2FE7C624500D270BDA84214BF17
:105640004FF080444FF04044002E08BF0024BEF1CC
:10565000806FA8BFA1F1C041BDE8704080F2828098
:1056600001F1C04101F000414FF0000070470CEA29
:1056700013159EEA0C0F18BF95EA0C0F06D081EAAD
:10568000030E4FF000000EF0004170BD00F01CF85A
:105690008900013E00F007B800F009B84FEA430C5A
:1056A0005FEA5C5C08D081EA030100F05BB84FEA76
:1056B000410C5FEA5C5CF6D102494FF00000704794
:1056C0000000FF070000F87F0EF1020E2EF0030E1F
:1056D0005EF8046B364205D4012A43EB030515F549
:1056E000001F12D8012841EB010C1CF5001F0CD83B
:1056F0000ED14FEAD17C0CEB4C0C0CF1020C15F5E1
:10570000001F08BF4CEBD37C04E04FF0080C01E015
:105710004FEAD37C0CEB4C0526FA05F606F007069B
:10572000B6F1040C06D20EEB860CBDE870404CF0CE
:10573000010C6047DFE80CF0090B02024FF000415A
:10574000A1F500214FF0000070BD19461046012858
:1057500051EB010418BFD4F5001484BF002001F000
:10576000004170BD0808A0F500114FEA31017047F3
:10577000040000080000000000000002000100001A
:1057800010000000000000000001020304060708EA
:105790000900000000010203042564002530336481
:1057A0000025303564000000564B3A7A617A313278
:1057B0003820202020202020323032340000000009
:1057C00046573A204252454C5F302E392030392E10
:1057D000323032340000000052414944454E204DE1
:1057E00045495B56322B5D2033356D6D000000005E
:1057F000909090922020CBF3F72D312D333520203F
:10580000919090900000000038590008000000209E
:10581000C80100005C010008005B0008C80100200E
:10582000900B000078010008100100004300000008
:10583000F8FFFFFF004040404040404040404141B1
:105840004141414040404040404040404040404055
:1058500040404040400502020202020202020202EF
:1058600002020202022020202020202020202002EC
:10587000020202020202909090909090101010107C
:105880001010101010101010101010101010101018
:1058900002020202020288888888888808080808AC
:1058A0000808080808080808080808080808080878
:1058B00002020202400000000000000000000000A0
:1058C00000000000000000000000000000000000D8
:1058D00000000000000000000000000000000000C8
:1058E00000000000000000000000000000000000B8
:1058F00000000000000000000000000000000000A8
:105900000000000000000000000000000000000097
:105910000000000000000000000000000000000087
:105920000000000000000000000000000000000077
:105930000000000000000000FF0000000024F40050
:10594000000102030405060708090A0B0C0D0E0FDF
:10595000101112131415161718191A1B1C1D1E1FCF
:10596000202122232425262728292A2B2C2D2E2FBF
:10597000303132333435363738393A3B3C3D3E3FAF
:10598000404142434445464748494A4B4C4D4E4F9F
:10599000505152535455565758595A5B5C5D5E5F8F
:1059A000606162636465666768696A6B6C6D6E6F7F
:1059B000707172737475767778797A7B7C7D7E7F6F
:1059C000898182838485868788898A8B8C8D8E8F56
:1059D000CDCCB9DBFBFEFD005E7FDBB0000000003C
:1059E000B5C6000000000000F0000000000000004C
:1059F0000000000000000000F1FC000000000000BA
:105A0000808182838485868788898A8B8C8D8E8F1E
:105A1000909192939495969798999A9B9C9D9E9F0E
:105A2000A0A1A2A3A4A5A6A7A8A9AAABACADAEAFFE
:105A3000E0E1E2E3E4E5E6E7E8E9EAEBECEDEEEFEE
:105A40001B5B324A1B520001C0D6CF3A00C2C2CE05
:105A5000C43A00204252454C5F302E3900202020AD
:105A6000202020C7C0C2C5D0D8C5CDCE2020202040
:105A70002020CAE0E4F020B93A20202020A020A075
:105A80002020202020200020202020202020CFC0E7
:105A9000D3C7C0202020202020202000202020202C
:105AA000202020C3CED2CEC220202020202020952E
:105AB000002A523A3030302A473A3030302A423ABF
:105AC0003030302A9500212020202020CFD0C5D092
:105AD000C2C0CDCE20202020202100212020CFCEEA
